:03000000020100FA
:1001000012810812810C12015712017612810CEF34
:1001100012014F128104743A128102EB12014F1244
:100120008104C297740A120135D297740A120135FC
:1001300080DA1201C37902758901758C4C758A00C9
:10014000D28C308DFDC28CC28DD9EC1470E7227533
:10015000F00A84C425F02212811CFF12014F128183
:1001600004743A12810212811CFB12014F128104A5
:10017000740A12013522BB000B1201ACBF00057BD3
:100180000002010C02018712810CEF12014F128153
:1001900004743A128102EB12014F128104740A12A4
:1001A0000135EB70037B3C1F1B02010912810CEF30
:1001B00012014F128104743A128102EB12014F12A4
:0601C00081042280FE0014
:00000001FF
