:03000000020100FA
:1001000012810812810C12811CF81201D312810491
:1001100012811CB40A0E742B1281021201B4E82958
:10012000FA1201C9B40B11742D1281021201B4C369
:10013000E899FA40711201C9B40C10742A128102B4
:100140001201B4E889F0A4FA1201C9742F128102D5
:100150001201B4B90003120176E889F084FAABF019
:10016000EA1201D31281047452128102EB1201D3FC
:100170001281041201E67445128102740212811286
:10018000745212810274021281127452128102742A
:1001900002128112744F128102740212811274527F
:1001A0001281021201E6742D128102C3EAF42401C5
:1001B000FA12013512811CF91201D3128104743D27
:1001C000128102740512811222EA1201D3128104F3
:1001D0001201E675F064846003128104E5F075F0A5
:0901E0000A84C425F02280FE000F
:00000001FF
